{
  "_format": "hh-sol-artifact-1",
  "contractName": "AttendanceTracker",
  "sourceName": "contracts/AttendanceTracker.sol",
  "abi": [
    {
      "inputs": [],
      "stateMutability": "nonpayable",
      "type": "constructor"
    },
    {
      "anonymous": false,
      "inputs": [
        {
          "indexed": true,
          "internalType": "address",
          "name": "student",
          "type": "address"
        },
        {
          "indexed": false,
          "internalType": "bool",
          "name": "present",
          "type": "bool"
        }
      ],
      "name": "AttendanceMarked",
      "type": "event"
    },
    {
      "anonymous": false,
      "inputs": [
        {
          "indexed": true,
          "internalType": "address",
          "name": "student",
          "type": "address"
        }
      ],
      "name": "StudentAdded",
      "type": "event"
    },
    {
      "inputs": [],
      "name": "getAllAttendance",
      "outputs": [
        {
          "internalType": "address[]",
          "name": "",
          "type": "address[]"
        },
        {
          "internalType": "bool[]",
          "name": "",
          "type": "bool[]"
        }
      ],
      "stateMutability": "view",
      "type": "function"
    },
    {
      "inputs": [
        {
          "internalType": "address",
          "name": "_student",
          "type": "address"
        }
      ],
      "name": "isMarkedPresent",
      "outputs": [
        {
          "internalType": "bool",
          "name": "",
          "type": "bool"
        }
      ],
      "stateMutability": "view",
      "type": "function"
    },
    {
      "inputs": [
        {
          "internalType": "address",
          "name": "_student",
          "type": "address"
        }
      ],
      "name": "markAttendance",
      "outputs": [],
      "stateMutability": "nonpayable",
      "type": "function"
    },
    {
      "inputs": [],
      "name": "teacher",
      "outputs": [
        {
          "internalType": "address",
          "name": "",
          "type": "address"
        }
      ],
      "stateMutability": "view",
      "type": "function"
    },
    {
      "inputs": [
        {
          "internalType": "address",
          "name": "_student",
          "type": "address"
        }
      ],
      "name": "unmarkAttendance",
      "outputs": [],
      "stateMutability": "nonpayable",
      "type": "function"
    }
  ],
  "bytecode": "0x608060405234801561001057600080fd5b50336000806101000a81548173ffffffffffffffffffffffffffffffffffffffff021916908373ffffffffffffffffffffffffffffffffffffffff160217905550610ddf806100606000396000f3fe608060405234801561001057600080fd5b50600436106100575760003560e01c80630a6fdeee1461005c5780634f0627851461007b57806352892986146100975780638aa35c25146100b3578063b46bff89146100e3575b600080fd5b610064610101565b604051610072929190610a11565b60405180910390f35b61009560048036038101906100909190610a79565b6102be565b005b6100b160048036038101906100ac9190610a79565b6104e3565b005b6100cd60048036038101906100c89190610a79565b61072f565b6040516100da9190610ab5565b60405180910390f35b6100eb610785565b6040516100f89190610adf565b60405180910390f35b606080600060028054905067ffffffffffffffff81111561012557610124610afa565b5b6040519080825280602002602001820160405280156101535781602001602082028036833780820191505090505b50905060005b60028054905081101561022957600160006002838154811061017e5761017d610b29565b5b9060005260206000200160009054906101000a900473ffffffffffffffffffffffffffffffffffffffff1673ffffffffffffffffffffffffffffffffffffffff1673ffffffffffffffffffffffffffffffffffffffff16815260200190815260200160002060009054906101000a900460ff1682828151811061020457610203610b29565b5b602002602001019015159081151581525050808061022190610b91565b915050610159565b50600281818054806020026020016040519081016040528092919081815260200182805480156102ae57602002820191906000526020600020905b8160009054906101000a900473ffffffffffffffffffffffffffffffffffffffff1673ffffffffffffffffffffffffffffffffffffffff1681526020019060010190808311610264575b5050505050915092509250509091565b60008054906101000a900473ffffffffffffffffffffffffffffffffffffffff1673ffffffffffffffffffffffffffffffffffffffff163373ffffffffffffffffffffffffffffffffffffffff161461034c576040517f08c379a000000000000000000000000000000000000000000000000000000000815260040161034390610c5c565b60405180910390fd5b600160008273ffffffffffffffffffffffffffffffffffffffff1673ffffffffffffffffffffffffffffffffffffffff16815260200190815260200160002060009054906101000a900460ff166103d8576040517f08c379a00000000000000000000000000000000000000000000000000000000081526004016103cf90610cc8565b60405180910390fd5b6000600160008373ffffffffffffffffffffffffffffffffffffffff1673ffffffffffffffffffffffffffffffffffffffff16815260200190815260200160002060006101000a81548160ff0219169083151502179055508073ffffffffffffffffffffffffffffffffffffffff167f5904180ff0d05346dba0438c14e001c4d7173c2ea74c458582a10da5ce53946760006040516104779190610ab5565b60405180910390a260001515600160008373ffffffffffffffffffffffffffffffffffffffff1673ffffffffffffffffffffffffffffffffffffffff16815260200190815260200160002060009054906101000a900460ff161515146104e0576104df610ce8565b5b50565b60008054906101000a900473ffffffffffffffffffffffffffffffffffffffff1673ffffffffffffffffffffffffffffffffffffffff163373ffffffffffffffffffffffffffffffffffffffff1614610571576040517f08c379a000000000000000000000000000000000000000000000000000000000815260040161056890610d89565b60405180910390fd5b60018060008373ffffffffffffffffffffffffffffffffffffffff1673ffffffffffffffffffffffffffffffffffffffff16815260200190815260200160002060006101000a81548160ff0219169083151502179055506105d1816107a9565b61067c576002819080600181540180825580915050600190039060005260206000200160009091909190916101000a81548173ffffffffffffffffffffffffffffffffffffffff021916908373ffffffffffffffffffffffffffffffffffffffff1602179055508073ffffffffffffffffffffffffffffffffffffffff167f0e247955258b6547e8cccc2c23a51bde067ec81cbc12b12ee10ee47f2e333a4b60405160405180910390a25b8073ffffffffffffffffffffffffffffffffffffffff167f5904180ff0d05346dba0438c14e001c4d7173c2ea74c458582a10da5ce53946760016040516106c39190610ab5565b60405180910390a260011515600160008373ffffffffffffffffffffffffffffffffffffffff1673ffffffffffffffffffffffffffffffffffffffff16815260200190815260200160002060009054906101000a900460ff1615151461072c5761072b610ce8565b5b50565b6000600160008373ffffffffffffffffffffffffffffffffffffffff1673ffffffffffffffffffffffffffffffffffffffff16815260200190815260200160002060009054906101000a900460ff169050919050565b60008054906101000a900473ffffffffffffffffffffffffffffffffffffffff1681565b600080600090505b60028054905081101561084c578273ffffffffffffffffffffffffffffffffffffffff16600282815481106107e9576107e8610b29565b5b9060005260206000200160009054906101000a900473ffffffffffffffffffffffffffffffffffffffff1673ffffffffffffffffffffffffffffffffffffffff1603610839576001915050610852565b808061084490610b91565b9150506107b1565b50600090505b919050565b600081519050919050565b600082825260208201905092915050565b6000819050602082019050919050565b600073ffffffffffffffffffffffffffffffffffffffff82169050919050565b60006108ae82610883565b9050919050565b6108be816108a3565b82525050565b60006108d083836108b5565b60208301905092915050565b6000602082019050919050565b60006108f482610857565b6108fe8185610862565b935061090983610873565b8060005b8381101561093a57815161092188826108c4565b975061092c836108dc565b92505060018101905061090d565b5085935050505092915050565b600081519050919050565b600082825260208201905092915050565b6000819050602082019050919050565b60008115159050919050565b61098881610973565b82525050565b600061099a838361097f565b60208301905092915050565b6000602082019050919050565b60006109be82610947565b6109c88185610952565b93506109d383610963565b8060005b83811015610a045781516109eb888261098e565b97506109f6836109a6565b9250506001810190506109d7565b5085935050505092915050565b60006040820190508181036000830152610a2b81856108e9565b90508181036020830152610a3f81846109b3565b90509392505050565b600080fd5b610a56816108a3565b8114610a6157600080fd5b50565b600081359050610a7381610a4d565b92915050565b600060208284031215610a8f57610a8e610a48565b5b6000610a9d84828501610a64565b91505092915050565b610aaf81610973565b82525050565b6000602082019050610aca6000830184610aa6565b92915050565b610ad9816108a3565b82525050565b6000602082019050610af46000830184610ad0565b92915050565b7f4e487b7100000000000000000000000000000000000000000000000000000000600052604160045260246000fd5b7f4e487b7100000000000000000000000000000000000000000000000000000000600052603260045260246000fd5b7f4e487b7100000000000000000000000000000000000000000000000000000000600052601160045260246000fd5b6000819050919050565b6000610b9c82610b87565b91507fffffffffffffffffffffffffffffffffffffffffffffffffffffffffffffffff8203610bce57610bcd610b58565b5b600182019050919050565b600082825260208201905092915050565b7f4f6e6c792074686520746561636865722063616e20756e6d61726b206174746560008201527f6e64616e63650000000000000000000000000000000000000000000000000000602082015250565b6000610c46602683610bd9565b9150610c5182610bea565b604082019050919050565b60006020820190508181036000830152610c7581610c39565b9050919050565b7f53747564656e74206973206e6f74206d61726b65642061732070726573656e74600082015250565b6000610cb2602083610bd9565b9150610cbd82610c7c565b602082019050919050565b60006020820190508181036000830152610ce181610ca5565b9050919050565b7f4e487b7100000000000000000000000000000000000000000000000000000000600052600160045260246000fd5b7f4f6e6c792074686520746561636865722063616e206d61726b20617474656e6460008201527f616e636500000000000000000000000000000000000000000000000000000000602082015250565b6000610d73602483610bd9565b9150610d7e82610d17565b604082019050919050565b60006020820190508181036000830152610da281610d66565b905091905056fea264697066735822122002397f45b813509e1a7185c5c07144eca7345afc97c70be54c120d2058e4a4cc64736f6c63430008120033",
  "linkReferences": {},
  "deployedLinkReferences": {}
}